:100000000C9463000C948B000C948B000C940707E9
:100010000C9407070C9407070C948B000C948B002E
:100020000C948B000C948B000C948B000C948B0024
:100030000C948B000C948B000C948B000C948B0014
:100040000C94BD060C948B000C948B060C946506E6
:100050000C948B000C948B000C948B000C948B00F4
:100060000C947F070C948B000000000024002700F4
:100070002A0000000008000201000003040700003D
:1000800000000000000000000000230026002900FE
:1000900000000000250028002B00040404040404D0
:1000A0000404020202020202030303030303010227
:1000B00004081020408001020408102001020408F6
:1000C0001020E308FE0C11241FBECFEFD8E0DEBFE6
:1000D000CDBF11E0A0E0B1E0E2EAFDE102C0059091
:1000E0000D92A03BB107D9F723E0A0EBB1E001C02E
:1000F0001D92AB38B207E1F710E0C2E6D0E004C0D1
:100100002197FE010E94BE0EC136D107C9F70E9499
:10011000B5090C94C40E0C94000008950895AF9294
:10012000BF92CF92DF92EF92FF920F931F93CF93E4
:10013000DF936C017B018B01040F151FEB015E0146
:10014000AE18BF08C017D10759F06991D601ED91DB
:10015000FC910190F081E02DC6010995892B79F77A
:10016000C501DF91CF911F910F91FF90EF90DF902C
:10017000CF90BF90AF900895FC01538D448D252FF3
:1001800030E0842F90E0821B930B541710F0CF9631
:10019000089501970895FC01918D828D981761F063
:1001A000A28DAE0FBF2FB11D5D968C91928D9F5F7A
:1001B0009F73928F90E008958FEF9FEF0895FC0159
:1001C000918D828D981731F0828DE80FF11D858D0C
:1001D00090E008958FEF9FEF0895FC01918D228D9F
:1001E000892F90E0805C9F4F821B91098F73992724
:1001F000089587EB92E00E94ED0021E0892B09F43D
:1002000020E0822F089580E090E0892B29F00E9461
:10021000F90081110C9400000895FC01A48DA80F31
:10022000B92FB11DA35ABF4F2C91848D90E0019638
:100230008F739927848FA689B7892C93A089B18958
:100240008C91837080648C93938D848D981306C0F9
:100250000288F389E02D80818F7D80830895EF925D
:10026000FF920F931F93CF93DF93EC0181E0888F70
:100270009B8D8C8D98131AC0E889F989808185FF40
:1002800015C09FB7F894EE89FF896083E889F989E2
:1002900080818370806480839FBF81E090E0DF91E4
:1002A000CF911F910F91FF90EF900895F62E0B8D37
:1002B00010E00F5F1F4F0F731127E02E8C8D8E11F2
:1002C0000CC00FB607FCFACFE889F989808185FF59
:1002D000F5CFCE010E940D01F1CFEB8DEC0FFD2F7C
:1002E000F11DE35AFF4FF0829FB7F8940B8FEA8914
:1002F000FB8980818062CFCFCF93DF93EC01888D23
:100300008823B9F0AA89BB89E889F9898C9185FD90
:1003100003C0808186FD0DC00FB607FCF7CF8C911E
:1003200085FFF2CF808185FFEDCFCE010E940D01C8
:10033000E9CFDF91CF910895833081F028F48130A7
:1003400099F08230A9F008958730A9F08830C9F07B
:100350008430B1F4809180008F7D03C08091800053
:100360008F7780938000089584B58F7784BD08953A
:1003700084B58F7DFBCF8091B0008F778093B000E4
:1003800008958091B0008F7DF9CF1F93CF93DF93B5
:10039000282F30E0F901EE58FF4F8491F901E25522
:1003A000FF4FD491F901E656FF4FC491CC23A9F039
:1003B000162F81110E949C01EC2FF0E0EE0FFF1F21
:1003C000E057FF4FA591B4918FB7F894EC911111BC
:1003D00008C0D095DE23DC938FBFDF91CF911F91B2
:1003E0000895DE2BF8CFCF93DF9390E0FC01E25528
:1003F000FF4F249186569F4FFC0184918823C9F0BA
:1004000090E0880F991FFC01E859FF4FA591B49126
:10041000FC01E057FF4FC591D49161110DC09FB70A
:10042000F8948C91209582238C93888128232883AB
:100430009FBFDF91CF910895623051F49FB7F89438
:100440003C91822F809583238C93E8812E2BEFCFD4
:100450008FB7F894EC912E2B2C938FBFEACF3FB738
:10046000F8948091A7029091A802A091A902B0915E
:10047000AA0226B5A89B05C02F3F19F00196A11D21
:10048000B11D3FBFBA2FA92F982F8827BC01CD01DE
:10049000620F711D811D911D42E0660F771F881F3D
:1004A000991F4A95D1F708958F929F92AF92BF926C
:1004B000CF92DF92EF92FF924B015C010E942F02DC
:1004C0006B017C010E942F026C197D098E099F0926
:1004D000683E734081059105A8F321E0821A9108D6
:1004E000A108B10888EEC80E83E0D81EE11CF11CFB
:1004F00081149104A104B10429F7FF90EF90DF90DB
:10050000CF90BF90AF909F908F9008952091AD02B3
:100510003091AE022817390771F49091AB028091A7
:10052000AC02981741F0E091AB02F0E0EE59FD4FBC
:10053000808190E008958FEF9FEF08950895EF92E6
:10054000FF920F931F93CF93DF93DC015C96ED90A6
:10055000FC905D97E114F10479F481E090E013964A
:100560009C938E93129790E080E0DF91CF911F9142
:100570000F91FF90EF9008955196ED91FC91529755
:1005800050968C915097982F90950FB75E962C911E
:100590005E97122F127021FD6095F894208111232F
:1005A00019F1282B2083E7012197F1F728E0462F46
:1005B00050E0308160FF1AC0382B3083E70121976B
:1005C000F1F7BA0175956795215089F7112381F0EC
:1005D0008081892380830FBF5C968D919C910197C8
:1005E000F1F781E090E0C1CF2923DCCF3923E5CFBB
:1005F0009081892BEFCF2091AD023091AE02281768
:10060000390771F48091AC022091AB0290E0805CDC
:100610009F4F821B910960E470E00E94740E089560
:1006200090E080E008952091AD023091AE0228174D
:100630003907B9F49091AB028091AC02981789F018
:10064000E091AB02F0E0EE59FD4F80812091AB02CA
:1006500030E02F5F3F4F2F7333272093AB0290E0A2
:1006600008958FEF9FEF089508952091F101260FCF
:100670003327331F21323105ECF420913A02FC017B
:1006800090E080E0243069F082E00895A091F101CB
:100690002191AC014F525E4FA40FB52FB11D2C9389
:1006A0000196861798F38091F101680F6093F1012C
:1006B00080E0089581E0089510923A0281E08093ED
:1006C00039021092140261E082E10E94C50161E0EA
:1006D00083E10E94C501E9EBF0E080818E7F808399
:1006E00080818D7F808388E48093B80085E4809347
:1006F000BC000895CF93DF9391E09093D0018823BD
:10070000B9F0C091B800D091BA008091BC008A7B4A
:100710008093BC0060E082E10E94C50160E083E15B
:100720000E94C5010E945C03D093BA00C093B80038
:10073000DF91CF910895E091B6028091B502E8175C
:1007400030F4F0E0E055FE4F808190E008958FEFA7
:100750009FEF08959091B6028091B5022FEF3FEF81
:10076000981748F4E92FF0E0E055FE4F208130E083
:100770009F5F9093B602C90108958091B502909150
:10078000B602891B990B0895CF92DF92EF92FF92E8
:100790000F931F93CF93DF937C01CB018A012091AC
:1007A0004002222389F0EB016B01C40ED51ECC154B
:1007B000DD0569F06991D701ED91FC910190F0811F
:1007C000E02DC7010995F3CF642F0E943503C801BE
:1007D000DF91CF911F910F91FF90EF90DF90CF901D
:1007E0000895CF93DF931F92CDB7DEB76983209131
:1007F00040022223F9F02091B302203258F021E088
:1008000030E0FC013383228390E080E00F90DF91A1
:10081000CF9108958091B402E82FF0E0EF5BFD4F97
:10082000998190838F5F8093B4028093B30281E0BB
:1008300090E0ECCF61E0CE0101960E943503F7CF46
:10084000CF92DF92EF92FF920F931F93CF93DF939C
:10085000FC01C48121E020934002C0936102109208
:10086000B4021092B3028385682B84E593E00E9462
:10087000F103D091B302D13208F092C00E942F024E
:100880006B017C0180913A02811165C082E0809306
:100890003A0281E0809339028FEF80933802109200
:1008A0003702D0933602A1E4B2E0E6E1F2E080E064
:1008B000D81385C01092150280911502CC0FC82B59
:1008C000C093150280911402813009F07CC010920F
:1008D00014020E942F026B017C018091150280930B
:1008E000BB0080913C0290913D02A0913E02B091EC
:1008F0003F02892B8A2B8B2B99F00E942F020091AB
:100900003C0210913D0220913E0230913F026C1951
:100910007D098E099F090617170728073907E0F197
:100920008091BC0083FDD9CF85EC8093BC000E94F0
:100930002F026B017C0180913A02823009F445C09C
:10094000809138028F3F61F180913802803241F10D
:100950008091380225C080913C0290913D02A09187
:100960003E02B0913F02892B8A2B8B2B09F48ACF50
:100970000E942F0200913C0210913D0220913E0204
:1009800030913F026C197D098E099F0906171707E0
:100990002807390708F076CF80913B020E947A033E
:1009A0001092B4021092B30210924002DF91CF91E4
:1009B0001F910F91FF90EF90DF90CF9008959D9140
:1009C00091938F5F75CF85EEB0CF80913C0290916F
:1009D0003D02A0913E02B0913F02892B8A2B8B2BC6
:1009E00009F4A9CF0E942F0200913C0210913D0210
:1009F00020913E0230913F026C197D098E099F09BA
:100A0000061717072807390708F095CFC5CF90E0DC
:100A100080E008950F931F93CF938C01C62F0E94FF
:100A200020046C2F6460C8010E9420046C2F6B7F2F
:100A3000C8010E94200483EC90E00197F1F7CF9168
:100A40001F910F9108950F931F93CF93DF938C0104
:100A5000D62FC42F607F642B0E940A0580E1D89FA7
:100A6000B00111246C2BC801DF91CF911F910F9120
:100A70000C940A05CF93DF93CDB7DEB728970FB656
:100A8000F894DEBF0FBECDBF98E0E0E0F1E0DE01FC
:100A9000119601900D929A95E1F790918703961720
:100AA00008F46FEF262F30E0220F331F41E050E0B3
:100AB0004C0F5D1F240F351FF9016081680F6068BE
:100AC00040E08FE793E028960FB6F894DEBF0FBEA4
:100AD000CDBFDF91CF910C94230541E00E94230507
:100AE00081E090E00895FB0101900020E9F7319743
:100AF000AF01461B570BDC01ED91FC910280F381A5
:100B0000E02D09948F929F92AF92BF92CF92DF9285
:100B1000EF92FF92CF93DF93CDB7DEB7A1970FB6D9
:100B2000F894DEBF0FBECDBF6B017C0141E06DE2EA
:100B30008FE793E00E94230522273327A9012C1970
:100B40003D094E095F0919A27E0181E2E80EF11C00
:100B50008AE0882E912CA12CB12CCA01B901A501E3
:100B600094010E94880E605DF70162937F01211558
:100B700031054105510589F790E080E0309729F073
:100B8000BF018FE793E00E9473050196A1960FB60F
:100B9000F894DEBF0FBECDBFDF91CF91FF90EF90F5
:100BA000DF90CF90BF90AF909F908F900895611588
:100BB000710511F00C94730590E080E0089585EDC7
:100BC0008093BC0080913C0290913D02A0913E0236
:100BD000B0913F020796A11DB11D23E0B695A795E0
:100BE000979587952A95D1F72091BC0024FD03C0E5
:100BF00010923A02089540913C0250913D0260915A
:100C00003E0270913F02452B462B472B69F300971C
:100C1000A105B10541F025E32A95F1F70000019700
:100C2000A109B109E1CF80913B020C947A030F93A3
:100C30001F93CF93DF93182FEB0160E00E94C50153
:100C400083E090E00197F1F761E0812F0E94C501F8
:100C500083E290E00197F1F760E0812F0E94C501E7
:100C6000FE01E255FF4F6491FE01E656FF4FE4910D
:100C7000F0E0EE0FFF1FEA57FF4F8591949100E4DB
:100C800012E42FE030E0462F0E949E0861157105A6
:100C90008105910529F06F5F7F4F8F4F9F4F9F70A8
:100CA0000E94570D26E933E44BE05DE30E94DF0D1F
:100CB00020E030E040E05FE30E94DF0D0E941F0D66
:100CC000DF91CF911F910F9108951F920F920FB650
:100CD0000F9211242F933F934F935F936F937F93C2
:100CE0008F939F93AF93BF93EF93FF9387EB92E024
:100CF0000E940D01FF91EF91BF91AF919F918F9154
:100D00007F916F915F914F913F912F910F900FBE07
:100D10000F901F9018951F920F920FB60F921124EB
:100D20002F938F939F93EF93FF93E091C702F091DE
:100D3000C8028081E091CD02F091CE0282FD1BC0FD
:100D400090818091D0028F5F8F732091D1028217A2
:100D500041F0E091D002F0E0E954FD4F958F80938F
:100D6000D002FF91EF919F918F912F910F900FBE25
:100D70000F901F9018958081F4CF1F920F920FB69D
:100D80000F9211242F933F938F939F93AF93BF9311
:100D90008091A3029091A402A091A502B091A60215
:100DA0003091A20223E0230F2D3758F50196A11DA3
:100DB000B11D2093A2028093A3029093A402A0935A
:100DC000A502B093A6028091A7029091A802A091DB
:100DD000A902B091AA020196A11DB11D8093A7029C
:100DE0009093A802A093A902B093AA02BF91AF91D9
:100DF0009F918F913F912F910F900FBE0F901F9059
:100E0000189526E8230F0296A11DB11DD2CF1F927F
:100E10000F920FB60F9211242F933F934F935F932E
:100E20006F937F938F939F93AF93BF93EF93FF93B2
:100E3000E091AD02F091AE02309749F0A685B785FA
:100E40008585968D91FF14C09C918923A1F4FF9113
:100E5000EF91BF91AF919F918F917F916F915F9132
:100E60004F913F912F910F900FBE0F901F901895AB
:100E70009C91892361F7A389B4899C918589809588
:100E800089238C93868997890197F1F7608D718DFD
:100E9000A685B785558538E020E0CB010197F1F7AD
:100EA000822F90E095958795282F4C91452309F046
:100EB0002068315091F7868D81FD20958091AC029C
:100EC00090E001968F7399273091AB02381799F013
:100ED000A091AC02B0E0AE59BD4F2C938093AC0210
:100EE000828D938D0197F1F7A389B4898C919589AF
:100EF000892B8C93ACCF868D8160868FF1CF1F922A
:100F00000F920FB60F9211242F933F934F935F933D
:100F10006F937F938F939F93AF93BF93EF93FF93C1
:100F20008091B900887F803609F44AC0F0F5883294
:100F300009F4A7C018F5803109F49BC0B8F48823E0
:100F400009F4F9C0883009F494C0FF91EF91BF9182
:100F5000AF919F918F917F916F915F914F913F9151
:100F60002F910F900FBE0F901F901895883109F4A4
:100F700088C0803251F78093380214C0803409F45D
:100F80009DC040F48033B9F38833F9F6809338027A
:100F900085ECB0C0803509F485C0883509F496C069
:100FA000883499F60E94DF05D0CF883909F48CC0C7
:100FB00038F5883729F050F4883611F0803729F653
:100FC00083E080933A021092130257C0883809F4E4
:100FD0007BC0803919F0803809F0B7CF80911302B7
:100FE000803208F071C0E091130281E08E0F80938F
:100FF00013028091BB00F0E0ED50FE4F80833DC0B6
:10100000803B39F0E0F4803A09F479C0883A09F07D
:101010009CCF84E080933A021092F2011092F10189
:10102000E091B102F091B20209958091F101811134
:101030000FC081E08093F1011092D10109C0803C82
:1010400009F4A6CF883C09F4A3CF883B09F07DCFF3
:10105000E091F20181E08E0F8093F201F0E0EF5217
:10106000FE4F80818093BB009091F2018091F1014D
:1010700029C0809115028093BB0085EC8093BC0051
:1010800064CF9091370280913602981758F5E0911D
:10109000370281E08E0F80933702F0E0EA5EFD4F69
:1010A0008081E9CFE091370281E08E0F8093370293
:1010B0008091BB00F0E0EA5EFD4F808390913702A3
:1010C000809136029817C8F285E8D8CFE0913702B0
:1010D00081E08E0F809337028091BB00F0E0EA5EE2
:1010E000FD4F80838091390281115CCF81E0809334
:1010F000140284EA8093BC0010923A0226CF85EC59
:101100008093BC0010923A0280911302803230F436
:10111000E0911302F0E0ED50FE4F10826091130257
:1011200070E0E091AF02F091B00283EF91E0099599
:10113000109213020ACF1092380234CFCF92DF926E
:10114000EF92FF920F931F93E82FF92F05C00150E4
:1011500011092109310961F1908196239417B9F39E
:1011600005C0015011092109310911F1908196231F
:101170009413F7CFC12CD12CE12CF12C0AC08FEFA6
:10118000C81AD80AE80AF80A0C151D052E053F05ED
:1011900079F080818623841791F36C2D7D2D8E2D1F
:1011A0009F2D1F910F91FF90EF90DF90CF900895AA
:1011B00060E070E080E090E01F910F91FF90EF9071
:1011C000DF90CF9008951092BA021092B90288EE83
:1011D00093E0A0E0B0E08093BB029093BC02A093A8
:1011E000BD02B093BE022CE031E03093B8022093F0
:1011F000B70225EC30E03093C4022093C30224EC04
:1012000030E03093C6022093C50220EC30E03093EA
:10121000C8022093C70221EC30E03093CA02209329
:10122000C90222EC30E03093CC022093CB0226ECB2
:1012300030E03093CE022093CD021092D002109273
:10124000D1021092D2021092D30210925703109240
:1012500056038093580390935903A0935A03B09375
:101260005B032EE131E03093550320935403109239
:1012700082031092810322E431E0309380032093B3
:101280007F0327E22093830320E12093880322E059
:101290002093890310928A031092630310926203D1
:1012A0008093640390936503A0936603B0936703F0
:1012B00080E391E090936103809360031092770341
:1012C00010927603109279031092780310927B03A8
:1012D00010927A0310927D0310927C0360917E033A
:1012E0006E7F6D7F60937E036695617081E06827F5
:1012F00083E00E94C50161E083E00E94F301E1EB1D
:10130000F0E0E491E0937003EDE9F0E0E491F0E0C7
:10131000EE0FFF1FE057FF4F85919491909372035A
:101320008093710360E082E00E94F30180917E036C
:1013300081FD04C061E082E00E94C50182E08093EB
:101340006C03E0EBF0E0E491E0936D03ECE9F0E096
:10135000E491F0E0EE0FFF1FEA57FF4F8591949163
:1013600090936F0380936E030895CF93DF93CDB76F
:10137000DEB7A1970FB6F894DEBF0FBECDBF78944D
:1013800084B5826084BD84B5816084BD85B582608A
:1013900085BD85B5816085BD80916E00816080933B
:1013A0006E001092810080918100826080938100A4
:1013B00080918100816080938100809180008160B4
:1013C000809380008091B10084608093B10080910F
:1013D000B00081608093B00080917A008460809337
:1013E0007A0080917A00826080937A0080917A00FE
:1013F000816080937A0080917A00806880937A007F
:101400001092C100E091C702F091C80282E080838F
:10141000E091C302F091C4021082E091C502F09104
:10142000C6028FEC80831092CF02E091CB02F09144
:10143000CC0286E08083E091C902F091CA028081EB
:1014400080618083E091C902F091CA028081886046
:101450008083E091C902F091CA0280818068808314
:10146000E091C902F091CA0280818F7D8083109241
:101470007B0310927A0310927903109278031092F2
:101480007703109276038DE991E090937D0380932A
:101490007C0390916C03963108F047C02DEB30E04F
:1014A00030937703209376032BE931E0309379036F
:1014B000209378032CE231E030937B0320937A036E
:1014C0002091680084E0983048F031E09E3008F4C4
:1014D00030E081E001C0880F3A95EAF7822B8093D3
:1014E00068002DE630E0983050F02BE630E09E307A
:1014F00030F02CE630E0963110F030E020E0309310
:10150000740320937303292F30E0983008F0C0C192
:1015100081E001C0880F9A95EAF780937503809166
:101520007C0390917D030197F1F780917A0390916C
:101530007B03892B49F1E091AD02F091AE0283E08B
:10154000E036F80709F1309739F0A389B4899C9106
:101550008589809589238C9380917E038E7F8093EB
:101560007E031092AC021092AB0280E693E090935F
:10157000AE028093AD02E0917303F0917403808119
:1015800090917503892B80831092B6021092B50258
:101590001092B4021092B3020E945C038DE890E0B6
:1015A0009093B2028093B1028EE890E09093B002E3
:1015B0008093AF021092840380918903823018F0E7
:1015C00098E0909384038093870362E370E080E067
:1015D00090E00E94540260918A038FE793E00E949A
:1015E000200468EE73E080E090E00E94540260E323
:1015F0008FE793E00E940A050BE416E4C801019707
:10160000F1F760E38FE793E00E940A05C8010197B4
:10161000F1F760E38FE793E00E940A0583E592E02B
:101620000197F1F760E28FE793E00E940A0560916D
:101630008403606240E08FE793E00E94230584E02A
:101640008093850340E06CE08FE793E00E942305E0
:1016500040E061E08FE793E00E9423050BE31FE188
:10166000C8010197F1F782E08093860340E066E0CD
:101670008FE793E00E94230540E062E08FE793E06C
:101680000E942305C8010197F1F788E080938A033F
:1016900060E08FE793E00E9420046AE471E08FE746
:1016A00093E00E94D70562E084E00E94F30161E0CC
:1016B00089E00E94F30160E08AE00E94F30161E0AA
:1016C0008BE00E94F30160E08CE00E94F30160E097
:1016D0008EE00E94F30161E087E00E94F30161E087
:1016E00086E00E94F30160E087E00E94C50160EDA2
:1016F00077E080E090E00E94540240E061E08FE7F4
:1017000093E00E942305C8010197F1F7E6E7F0E0B6
:101710008491E2EBF0E01491EEE9F0E00491312CD9
:10172000212C002399F081110E949C01E02FF0E010
:10173000EE0FFF1FEA57FF4FA591B4918C9118232C
:1017400091E080E009F490E0292E382E6AE070E004
:1017500089E090E00E9417064B015C016CE070E0AC
:101760008BE090E00E9417066B017C01F0E4F0939F
:101770007C0080917A00806480937A0080917A0066
:1017800086FDFCCF8091780060917900762F682FDC
:10179000072E000C880B990B0E94570D20E030E0BB
:1017A00040EA50E40E94DF0D20E030E048EC52E4D3
:1017B0000E94DF0D20E030E040E85AE30E94DF0D98
:1017C0002B013C0160E080E00E943A0560E571E099
:1017D0008FE793E00E94D705B7FE67C0C501B4014B
:1017E0000E94820566E571E08FE793E00E94D705CD
:1017F00061E080E00E943A0569E571E08FE793E0DF
:101800000E94D705F7FE71C0C701B6010E9482058C
:1018100066E571E08FE793E00E94D70560E023283A
:1018200009F083C087E00E94C50160E08CE00E945F
:101830003A056EE571E08FE793E00E94D70599ECD9
:1018400089169104A104B10484F0E5E6CE16D10412
:10185000E104F10454F020E030E040E252E4C3013E
:10186000B2010E941A0D87FD83C060ED77E080E031
:1018700090E00E94540280E090E0892B09F446CF6A
:101880000E94F900882309F441CF0E9400003ECF56
:101890009E3040F42850310981E001C0880F2A951C
:1018A000EAF73BCE2E503109F7CFA501940119A2DA
:1018B0008E010F5D1F4FCA01B9012AE030E040E000
:1018C00050E00E94880E605DF80162938F0121153F
:1018D00031054105510579F7309709F483CFBF01F0
:1018E0008FE793E00E9473057DCFA701960119A2AF
:1018F0008E010F5D1F4FCA01B9012AE030E040E0C0
:1019000050E00E94880E605DF80162938F012115FE
:1019100031054105510579F7309709F479CFBF01B9
:101920008FE793E00E94730573CF8CE00E943A0525
:1019300064E671E08FE793E00E94D705F9EC8F161B
:101940009104A104B104CCF085E6C816D104E104E9
:10195000F1049CF020E030E040E252E4C301B20127
:101960000E941A0D87FF09C061E087E00E94C5014F
:1019700060E086E00E94C50178CF61E086E00E94C9
:10198000C50180E693E00E94FB02892B09F057CF46
:101990006AE671E080E693E00E94730564E771E017
:1019A00080E693E00E94730564E670E080E090E0DA
:1019B0000E94540267E771E080E693E00E9473059D
:1019C00064E771E080E693E00E94730564E670E0EE
:1019D00080E090E00E9454026DE871E080E693E0C0
:1019E0000E94D70564E670E080E090E00E94540217
:1019F0006AE180E693E00E949F0221CF80E391E0BC
:101A000090936103809360038091AD029091AE0248
:101A10008056934071F4E0917303F09174039081C8
:101A2000809175038095892380831092AE02109275
:101A3000AD0208950E94920D08F481E008950E947D
:101A4000260D6894B1110C94D90D08950E94BE0D15
:101A500088F09F5798F0B92F9927B751B0F0E1F06F
:101A6000660F771F881F991F1AF0BA95C9F714C01F
:101A7000B13091F00E94D80DB1E008950C94D80DCA
:101A8000672F782F8827B85F39F0B93FCCF3869558
:101A900077956795B395D9F73EF4909580957095B5
:101AA00061957F4F8F4F9F4F0895E89409C097FB32
:101AB0003EF490958095709561957F4F8F4F9F4F25
:101AC0009923A9F0F92F96E9BB279395F695879569
:101AD00077956795B795F111F8CFFAF4BB0F11F42C
:101AE00060FF1BC06F5F7F4F8F4F9F4F16C08823D3
:101AF00011F096E911C0772321F09EE8872F762F09
:101B000005C0662371F096E8862F70E060E02AF049
:101B10009A95660F771F881FDAF7880F9695879535
:101B200097F90895990F0008550FAA0BE0E8FEEF0A
:101B300016161706E807F907C0F012161306E40791
:101B4000F50798F0621B730B840B950B39F40A268A
:101B500061F0232B242B252B21F408950A2609F468
:101B6000A140A6958FEF811D811D089557FD9058C6
:101B7000440F551F59F05F3F71F04795880F97FB51
:101B8000991F61F09F3F79F087950895121613060B
:101B90001406551FF2CF4695F1DF08C0161617063A
:101BA0001806991FF1CF869571056105089408956F
:101BB000E894BB2766277727CB0197F908950E9401
:101BC000F20D0C94630E0E94550E38F00E945C0ECC
:101BD00020F0952311F00C944C0E0C94520E11240D
:101BE0000C94D90D0E94B60D70F3959FC1F3950F1B
:101BF00050E0551F629FF001729FBB27F00DB11D91
:101C0000639FAA27F00DB11DAA1F649F6627B00D20
:101C1000A11D661F829F2227B00DA11D621F739F09
:101C2000B00DA11D621F839FA00D611D221F749F17
:101C30003327A00D611D231F849F600D211D822F5E
:101C4000762F6A2F11249F5750409AF0F1F0882385
:101C50004AF0EE0FFF1FBB1F661F771F881F9150B2
:101C60005040A9F79E3F510580F00C944C0E0C9407
:101C7000D90D5F3FE4F3983ED4F386957795679549
:101C8000B795F795E7959F5FC1F7FE2B880F911DDC
:101C90009695879597F9089597F99F6780E870E082
:101CA00060E008959FEF80EC089500240A941616D2
:101CB000170618060906089500240A94121613063A
:101CC000140605060895092E0394000C11F48823C8
:101CD00052F0BB0F40F4BF2B11F460FF04C06F5FE4
:101CE0007F4F8F4F9F4F089597FB072E16F4009458
:101CF00007D077FD09D00E94AA0E07FC05D03EF45C
:101D0000909581959F4F0895709561957F4F0895A7
:101D1000A1E21A2EAA1BBB1BFD010DC0AA1FBB1FEF
:101D2000EE1FFF1FA217B307E407F50720F0A21B61
:101D3000B30BE40BF50B661F771F881F991F1A94CE
:101D400069F760957095809590959B01AC01BD01F8
:101D5000CF010895AA1BBB1B51E107C0AA1FBB1FDF
:101D6000A617B70710F0A61BB70B881F991F5A9527
:101D7000A9F780959095BC01CD010895EE0FFF1F46
:101D80000590F491E02D099410E0C2E6D0E004C083
:101D9000FE010E94BE0E2196C336D107C9F7F89402
:021DA000FFCF73
:101DA2000000400014005400000000002F018F00CA
:101DB200BC007C01ED00CB00DF0000000000F1035D
:101DC200C40307059E02BD03AA039B030000000093
:101DD2009F028F0007059E02FB021303860200008A
:101DE20000006D058F0007053403412E432E53007A
:101DF2004675656C3A00636D004F696C3A004D613F
:101E0200696E730047656E2E200041542B434D4787
:101E1200463D31000D0A0041542B434D47533D22AC
:101E22002B3132333435363738393022005761722C
:101E32006E696E673A20436865636B206675656CF0
:101E42002C206F696C206F722074656D7021000008
:00000001FF
